{"abi":[{"type":"constructor","inputs":[{"name":"name","type":"string","internalType":"string"}],"stateMutability":"nonpayable"},{"type":"function","name":"execute","inputs":[{"name":"req","type":"tuple","internalType":"struct ForwardRequest","components":[{"name":"from","type":"address","internalType":"address"},{"name":"to","type":"address","internalType":"address"},{"name":"value","type":"uint256","internalType":"uint256"},{"name":"gas","type":"uint256","internalType":"uint256"},{"name":"nonce","type":"uint256","internalType":"uint256"},{"name":"data","type":"bytes","internalType":"bytes"}]},{"name":"signature","type":"bytes","internalType":"bytes"}],"outputs":[{"name":"success","type":"bool","internalType":"bool"},{"name":"ret","type":"bytes","internalType":"bytes"}],"stateMutability":"payable"},{"type":"function","name":"getNonce","inputs":[{"name":"from","type":"address","internalType":"address"}],"outputs":[{"name":"","type":"uint256","internalType":"uint256"}],"stateMutability":"view"},{"type":"function","name":"nonces","inputs":[{"name":"owner","type":"address","internalType":"address"}],"outputs":[{"name":"","type":"uint256","internalType":"uint256"}],"stateMutability":"view"},{"type":"function","name":"verify","inputs":[{"name":"req","type":"tuple","internalType":"struct ForwardRequest","components":[{"name":"from","type":"address","internalType":"address"},{"name":"to","type":"address","internalType":"address"},{"name":"value","type":"uint256","internalType":"uint256"},{"name":"gas","type":"uint256","internalType":"uint256"},{"name":"nonce","type":"uint256","internalType":"uint256"},{"name":"data","type":"bytes","internalType":"bytes"}]},{"name":"signature","type":"bytes","internalType":"bytes"}],"outputs":[{"name":"","type":"bool","internalType":"bool"}],"stateMutability":"view"},{"type":"error","name":"ECDSAInvalidSignature","inputs":[]},{"type":"error","name":"ECDSAInvalidSignatureLength","inputs":[{"name":"length","type":"uint256","internalType":"uint256"}]},{"type":"error","name":"ECDSAInvalidSignatureS","inputs":[{"name":"s","type":"bytes32","internalType":"bytes32"}]},{"type":"error","name":"InvalidAccountNonce","inputs":[{"name":"account","type":"address","internalType":"address"},{"name":"currentNonce","type":"uint256","internalType":"uint256"}]},{"type":"error","name":"SafeCastOverflowedUintDowncast","inputs":[{"name":"bits","type":"uint8","internalType":"uint8"},{"name":"value","type":"uint256","internalType":"uint256"}]}],"bytecode":{"object":"0x60c0806040523461014b57610ba2803803809161001c8285610163565b833981019060208183031261014b578051906001600160401b03821161014b570181601f8201121561014b5780516001600160401b03811161014f5760405191610070601f8301601f191660200184610163565b81835260208301936020838301011161014b57815f926020809301865e830101527fdd8f4b70b0f4393e889bd39128a30628a78b61816a9eb8199759e7a349657e486080525190206040906001602083516100cb8582610163565b82815201603160f81b81522082519060208201927f8b73c3c69bb8fe3d512ecc4cf759cc79239f7b179b0ffacaa9a75d522b39400f84528483015260608201524660808201523060a082015260a0815261012660c082610163565b51902060a05251610a1b90816101878239608051816105dd015260a051816106c60152f35b5f80fd5b634e487b7160e01b5f52604160045260245ffd5b601f909101601f19168101906001600160401b0382119082101761014f5760405256fe60806040526004361015610011575f80fd5b5f3560e01c80632d0335ab1461019c57806347153f821461004f5780637ecebe001461004a5763bf5d3bdb14610045575f80fd5b61032c565b61019c565b5f8061006961006e6100603661022a565b9082949261054a565b61034f565b6100a661007a826103da565b73ffffffffffffffffffffffffffffffffffffffff165f525f60205260405f2080549060018201905590565b506100b3602082016103da565b9060408101356101026100f56100fd6100df6100d2606087013561073d565b67ffffffffffffffff1690565b946100ed60a08201826103e7565b9390916103da565b9236916104e5565b610789565b9260208451940192f161011361051b565b90801561012d57610129604051928392836102da565b0390f35b5080511561013d57805190602001fd5b6040517f08c379a000000000000000000000000000000000000000000000000000000000815260206004820152601d60248201527f4d696e696d616c466f727761726465723a2063616c6c206661696c65640000006044820152606490fd5b346102085760207ffffffffffffffffffffffffffffffffffffffffffffffffffffffffffffffffc3601126102085760206102006004356101dc8161020c565b73ffffffffffffffffffffffffffffffffffffffff165f525f60205260405f205490565b604051908152f35b5f80fd5b73ffffffffffffffffffffffffffffffffffffffff81160361020857565b60407ffffffffffffffffffffffffffffffffffffffffffffffffffffffffffffffffc8201126102085760043567ffffffffffffffff81116102085760c07ffffffffffffffffffffffffffffffffffffffffffffffffffffffffffffffffc8284030112610208576004019160243567ffffffffffffffff811161020857826023820112156102085780600401359267ffffffffffffffff84116102085760248483010111610208576024019190565b90601f60206060947fffffffffffffffffffffffffffffffffffffffffffffffffffffffffffffffe093151585526040828601528051918291826040880152018686015e5f8582860101520116010190565b3461020857602061034561033f3661022a565b9161054a565b6040519015158152f35b1561035657565b60846040517f08c379a000000000000000000000000000000000000000000000000000000000815260206004820152602360248201527f4d696e696d616c466f727761726465723a207369676e617475726520696e766160448201527f6c696400000000000000000000000000000000000000000000000000000000006064820152fd5b356103e48161020c565b90565b9035907fffffffffffffffffffffffffffffffffffffffffffffffffffffffffffffffe181360301821215610208570180359067ffffffffffffffff82116102085760200191813603831361020857565b7f4e487b71000000000000000000000000000000000000000000000000000000005f52604160045260245ffd5b90601f7fffffffffffffffffffffffffffffffffffffffffffffffffffffffffffffffe0910116810190811067ffffffffffffffff8211176104a657604052565b610438565b67ffffffffffffffff81116104a657601f017fffffffffffffffffffffffffffffffffffffffffffffffffffffffffffffffe01660200190565b9291926104f1826104ab565b916104ff6040519384610465565b829481845281830111610208578281602093845f960137010152565b3d15610545573d9061052c826104ab565b9161053a6040519384610465565b82523d5f602084013e565b606090565b91608083013561055e84356101dc8161020c565b81036107355761071061072f9261070a73ffffffffffffffffffffffffffffffffffffffff9561071694610591896103da565b906106706105a160208c016103da565b6106448c6040810135946105c86105c160608401359360a08101906103e7565b36916104e5565b602081519101209160405196879560208701997f00000000000000000000000000000000000000000000000000000000000000008b93909796959273ffffffffffffffffffffffffffffffffffffffff908160c0979460e088019b88521660208701521660408501526060840152608083015260a08201520152565b037fffffffffffffffffffffffffffffffffffffffffffffffffffffffffffffffe08101835282610465565b5190206040517f1900000000000000000000000000000000000000000000000000000000000000602082019081527f010000000000000000000000000000000000000000000000000000000000000060218301527f0000000000000000000000000000000000000000000000000000000000000000602283015260428201929092526106ff8160628101610644565b5190209236916104e5565b906107fd565b936103da565b73ffffffffffffffffffffffffffffffffffffffff1690565b91161490565b505050505f90565b67ffffffffffffffff81116107595767ffffffffffffffff1690565b7f6dfcc650000000000000000000000000000000000000000000000000000000005f52604060045260245260445ffd5b601460206103e49281947fffffffffffffffffffffffffffffffffffffffff0000000000000000000000006040519683889451918291018686015e83019160601b168382015203017ffffffffffffffffffffffffffffffffffffffffffffffffffffffffffffffff4810184520182610465565b6103e49161080a91610813565b90929192610884565b81519190604183036108435761083c9250602082015190606060408401519301515f1a9061094b565b9192909190565b50505f9160029190565b6004111561085757565b7f4e487b71000000000000000000000000000000000000000000000000000000005f52602160045260245ffd5b61088d8161084d565b80610896575050565b61089f8161084d565b600181036108cf577ff645eedf000000000000000000000000000000000000000000000000000000005f5260045ffd5b6108d88161084d565b6002810361090c57507ffce698f7000000000000000000000000000000000000000000000000000000005f5260045260245ffd5b8061091860039261084d565b146109205750565b7fd78bce0c000000000000000000000000000000000000000000000000000000005f5260045260245ffd5b91907f7fffffffffffffffffffffffffffffff5d576e7357a4501ddfe92f46681b20a084116109da579160209360809260ff5f9560405194855216868401526040830152606082015282805260015afa156109cf575f5173ffffffffffffffffffffffffffffffffffffffff8116156109c557905f905f90565b505f906001905f90565b6040513d5f823e3d90fd5b5050505f916003919056fea264697066735822122038a02bcbfaab908d28e9912e894a2770e653fba841d527b3b0c789d23a79894464736f6c634300081e0033","linkReferences":{}},"methodIdentifiers":{"execute((address,address,uint256,uint256,uint256,bytes),bytes)":"47153f82","getNonce(address)":"2d0335ab","nonces(address)":"7ecebe00","verify((address,address,uint256,uint256,uint256,bytes),bytes)":"bf5d3bdb"},"id":31}